:020000040800F2
:10000000C80B00243903000865440008053D0008BA
:10001000634400084B050008C155000800000000BB
:10002000000000000000000000000000DD470008A4
:1000300091090008000000009945000819490008CE
:100040005303000853030008530300085303000838
:100050005303000853030008530300085303000828
:100060005303000853030008530300084D0500081C
:100070005303000853030008530300085303000808
:1000800053030008530300085303000853030008F8
:1000900053030008530300085303000853030008E8
:1000A00053030008530300085303000853030008D8
:1000B00053030008530300085303000853030008C8
:1000C00053030008530300085303000853030008B8
:1000D00053030008530300085303000853030008A8
:1000E00053030008530300080000000053030008F6
:1000F0005303000853030008530300085303000888
:100100005303000853030008530300085303000877
:100110005303000853030008530300085303000867
:100120005303000853030008530300085303000857
:100130005303000853030008530300085303000847
:1001400000000000000000000000000000000000AF
:100150005303000853030008530300085303000827
:100160005303000853030008530300085303000817
:100170005303000853030008530300085303000807
:1001800053030008530300085303000853030008F7
:1001900053030008530300085303000853030008E7
:1001A00053030008530300085303000853030008D7
:1001B00053030008530300085303000853030008C7
:1001C00053030008530300085303000853030008B7
:1001D00053030008530300085303000853030008A7
:1001E0005303000853030008530300085303000897
:1001F0005303000853030008530300085303000887
:100200005303000853030008530300085303000876
:100210005303000853030008530300085303000866
:1002200053030008530300085303000800000000B4
:1002300053030008530300080000000053030008A4
:100240005303000853030008530300085303000836
:100250005303000853030008530300085303000826
:100260005303000853030008530300085303000816
:100270005303000853030008530300080000000064
:100280005303000853030008530300080000000054
:10029000000000005303000800F002F800F03CF8F2
:1002A0000AA090E8000C82448344AAF10107DA45D1
:1002B00001D100F031F8AFF2090EBAE80F0013F0E7
:1002C000010F18BFFB1A43F0010318471C60000020
:1002D0003C600000103A24BF78C878C1FAD85207B1
:1002E00024BF30C830C144BF04680C6070470000B0
:1002F0000023002400250026103A28BF78C1FBD82F
:10030000520728BF30C148BF0B6070471FB505F0CA
:100310003BFF1FBD10B510BD00F0E2F81146FFF71E
:10032000F5FF05F0E7FC00F000F903B4FFF7F2FF7A
:1003300003BC00F003F90000094880470948004762
:10034000FEE7FEE7FEE7FEE7FEE7FEE7FEE7FEE785
:10035000FEE7FEE704480549054A064B70470000E2
:10036000C949000899020008C8050024C80B0024E8
:10037000C8070024C807002453EA020C00F0698073
:100380002DE9F04B4FF00006002B1FBFB3FA83F5A9
:1003900003FA05F424FA05F65E4012BF1643B2FADA
:1003A00082F502FA05F4C5F120051EBF22FA05FC0C
:1003B00044EA0C04203556EA044C4FEA144418BFB2
:1003C000641C4FF000084FF00009904271EB030CE1
:1003D00039D3002919BFB1FA81F701FA07F6B0FA4B
:1003E00080F700FA07F6C7F120071EBF20FA07FCC6
:1003F00046EA0C062037B6FBF4FCA7EB0507103FD6
:1004000007F01F0BCBF120060CFA0BFB2CFA06F6BB
:1004100044BFB3460026202FA4BF5E464FF0000B1A
:100420005BEA060C08BF4FF0010B19EB0B09ABFBA5
:10043000027C48EB0608C01B06FB02CC0BFB03CC7E
:1004400071EB0C01C1E70B46024641464846BDE848
:10045000F08B13B54FF000004FF00001AFF30080B8
:10046000BDE81C4070474FF0000200B513469446AB
:100470009646203922BFA0E80C50A0E80C50B1F1FC
:100480002001BFF4F7AF090728BFA0E80C5048BF10
:100490000CC05DF804EB890028BF40F8042B08BFAE
:1004A000704748BF20F8022B11F0804F18BF00F8AA
:1004B000012B704770477047704710B500F008F87F
:1004C000006810BD10B5044600F002F8046010BDCD
:1004D0000048704764050024004870476405002404
:1004E0007546FFF7F9FFAE4605006946534620F012
:1004F0000700854618B020B5FFF72CFFBDE8204067
:100500004FF000064FF000074FF000084FF0000BCF
:1005100021F00701AC46ACE8C009ACE8C009ACE882
:10052000C009ACE8C0098D46704710B50446AFF36A
:1005300000802046BDE81040FFF7F7BE01491820B3
:10054000ABBEFEE7260002007047FEE7014800F060
:1005500021BA0000EC040024294A016891423AD0F3
:10056000274A1832914236D0254A3032914232D051
:10057000234A483291422ED0214A603291422AD0F9
:100580001F4A7832914226D01D4A9032914222D0A1
:100590001B4AA83291421ED01A4A91421BD0194AD6
:1005A0001832914217D0174A3032914213D0154A6F
:1005B000483291420FD0134A603291420BD0114A17
:1005C0007832914207D00F4A9032914203D00D4ABF
:1005D000A832914211D1CAB21823103AB2FBF3F2F9
:1005E0006FF30901032A02F00703074AD25CC265D0
:1005F00000D9091D81650846704721F0FF01F9E720
:1006000010000240100402409261000830B5224AF6
:10061000012301689142CAB21BD01F4C1434A1427D
:1006200017D01D4C2834A14213D01B4C3C34A1429E
:100630000FD0194C5034A1420BD0174C6434A14256
:1006400007D0154C7834A14203D0134C8C34A1420E
:100650000CD11421114C083AB2FBF1F10F4A80324F
:1006600001F01F0504EB8101AB4010E00C4D182494
:10067000103A0D44B2FBF4F1A82D00D80831094A14
:1006800001F01F0402EB8101064AA3408032603072
:1006900080E80E0030BD000008540258005802588F
:1006A000F0FBFDBF0008024010B50279531E072B76
:1006B0002DD8174C0168A1421BD0154C1434A1420F
:1006C00017D0134C2834A14213D0114C3C34A14212
:1006D0000FD00F4C5034A1420BD00D4C6434A142CA
:1006E00007D00B4C7834A14203D0094C8C34A14282
:1006F00003D10849074C443102E00749064C443114
:1007000004EB8202C0E91B2101219940416710BD21
:1007100008540258FC580258FC08024010B583697E
:100720004FF0C074826A0146002053B1B3F5005FF8
:1007300015D072B1012A0CD0022A0AD0032A09D19D
:1007400004E01AB1012A06D0022A03D1C96AC901FC
:1007500000D5012010BDC96AA142FAD010BD002AFF
:10076000F7D0012AF2D0022AF3D0032AF3D010BD29
:100770002DE9F04F804E804FDFF8FC911836DFF8FE
:10078000F8A148370468856D0AF1300ADFF8ECB14A
:100790004C45DFF8ECC1DFF8ECE16DD0B4426BD032
:1007A000544569D0BC4267D0DFF8D081A8F1180861
:1007B000444561D05C455FD064455DD074455BD0F5
:1007C000DFF8C481444557D0DFF8BC8108F1180830
:1007D000444551D0DFF8B08108F1300844454BD092
:1007E000DFF8A48108F14808444545D0DFF8988136
:1007F00008F1600844453FD0DFF88C8108F17808A3
:10080000444539D0DFF8808108F19008444533D061
:10081000DFF8748108F1A80844452DD0DFF86C8119
:10082000444529D0DFF8648108F11408444523D0F9
:10083000DFF8588108F1280844451DD0DFF84C81C5
:1008400008F13C08444517D0DFF8408108F1500812
:10085000444511D0DFF8348108F1640844450BD0D9
:10086000DFF8288108F17808444505D0DFF81C81BD
:1008700008F18C08444509D1D0E91948C4F804802E
:10088000C46E1CB1D0E91C48C4F8048004684C450F
:100890002ED0B4422CD054452AD0BC4228D0374E5A
:1008A000183EB44224D05C4522D0644520D0744523
:1008B0001ED0354EB4421BD0334E1836B44217D03A
:1008C000314E3036B44213D02F4E4836B4420FD09A
:1008D0002D4E6036B4420BD02B4E7836B44207D042
:1008E000294E9036B44203D0274EA836B44215D1D3
:1008F00090F85C603F2406F01F06B440AC600468CA
:10090000256825F4802525602EE09A600068C16086
:10091000BDE8F08F99600068C260F9E71B4EB442F1
:100920001BD01A4E1436B44217D0184E2836B44293
:1009300013D0164E3C36B4420FD0144E5036B4424B
:100940000BD0124E6436B44207D0104E7836B44203
:1009500003D00E4E8C36B442DAD190F85C6001249C
:1009600006F01F06B4406C60046863608368402B27
:100970000368CFD1C9E700001000024088000240A0
:10098000A0000240B800024010040240085402587F
:10099000704770472DE9FC5F0446FA4E0020DFF8EF
:1009A000E48300904FF41652F74808F11808A56D3B
:1009B000DFF8D0A3DFF8CCB301680AF1300A206871
:1009C0000BF1480BB1FBF2F1B04201912F68D5F861
:1009D00000C0DFF8B89336D04146884233D0504546
:1009E00031D058452FD0E749603188422BD0E549B6
:1009F0007831884227D0E3499031884223D0E149B9
:100A0000A83188421FD048451DD0E049183188429E
:100A100019D0DE493031884215D0DC4A4832904244
:100A200011D0DA49603188420DD0DFF860E30EF171
:100A3000780E704507D0D54B9033984203D0D349F8
:100A4000A83188427ED194F85C20082102F01F0270
:100A500001FA02F23A424BD0B04233D0404531D095
:100A600050452FD058452DD0C64A6032904229D0EB
:100A7000C44A7832904225D0C24A9032904221D066
:100A8000C04AA83290421DD048451BD0BF4A1832F8
:100A9000904217D0BD4A3032904213D0BB4A483200
:100AA00090420FD0B94A603290420BD0B74A7832A8
:100AB000904207D0B54A9032904203D0B34AA83250
:100AC000904203D1026802F0040202E0026802F0E0
:100AD00008026AB1026822F00402026094F85C0025
:100AE00000F01F008140A960606D40F0010060656A
:100AF00094F85C00012100F01F008140394241D090
:100B00002068B04235D0404533D0504531D05845AB
:100B10002FD09C4A603290422BD09A4A7832904231
:100B200027D0984A9032904223D0964AA8329042D9
:100B30001FD048451DD0954A1832904219D0934A8B
:100B4000303200E0B2E1904213D0904A48329042F5
:100B50000FD08E4A603290420BD08C4A783290424D
:100B600007D08A4A9032904203D0884AA8329042F5
:100B70007ED1406910F0800F04D0A960606D40F014
:100B80000200606594F85C00042100F01F008140C1
:100B900039423FD02068B04233D0404531D0504533
:100BA0002FD058452DD0774A6032904229D0754ACF
:100BB0007832904225D0734A9032904221D0714AC7
:100BC000A83290421DD048451BD0704A183290423E
:100BD00017D06E4A3032904213D06C4A483290425D
:100BE0000FD06A4A603290420BD0684A7832904205
:100BF00007D0664A9032904203D0644AA8329042AD
:100C00004FD1006810F0020F04D0A960606D40F071
:100C10000400606594F85C00102100F01F00814022
:100C2000394259D02068B04235D0404533D0504584
:100C300031D058452FD0534A603290422BD0514A80
:100C40007832904227D04F4A9032904223D04D4A7A
:100C5000A83290421FD048451DD04C4A18329042CD
:100C600019D04A4A3032904215D0484A483200E002
:100C700015E090420FD0454A603290420BD0434A73
:100C80007832904207D0414A9032904203D03F4A96
:100C9000A832904207D1006800F0080006E0006822
:100CA00070E70068B6E7006800F00400A0B1A96032
:100CB00020680168490304D50068000308D5A16CC9
:100CC00007E00168C90503D4016821F0080101604B
:100CD000216C09B12046884794F85C00202100F07F
:100CE0001F008140394278D02068B04233D040455F
:100CF00031D050452FD058452DD0224A60329042F5
:100D000029D0204A7832904225D01E4A9032904213
:100D100021D01C4AA83290421DD048451BD01B4A06
:100D20001832904217D0194A3032904213D0174AE5
:100D3000483290420FD0154A603290420BD0134A8D
:100D40007832904207D0114A9032904203D00F4A35
:100D5000A832904203D1006800F0100002E0006861
:100D600000F00200A0B3A96094F8350004282068C0
:100D700001680DD049037DD50068000329D4616C5A
:100D800028E0000010000240780000241004024017
:100D900021F0160101602068416921F08001416164
:100DA000206C08B9A06C20B12068016821F008010E
:100DB000016094F85C303F21002203F01F03012002
:100DC0009940A96084F8342084F83500216D66E0EC
:100DD00003E0E16B09B120468847606D00287DD0B3
:100DE000606DC0075AD02068042184F83510B042E5
:100DF0002BD0404529D0504527D0584525D09E4975
:100E0000884222D09C49183188421ED09A493031FC
:100E100088421AD098494831884216D0484514D0A3
:100E20009649884211D09549183188420DD093498E
:100E30003031884209D091494831884205D08F49E4
:100E40006031884201D08D497831016821F001017B
:100E5000016020680099019A491C0091914202D8D2
:100E60000168C907F6D1002184F834100068C00772
:100E700011D000E001E003200EE00168C905A8D40C
:100E800003680022012123F01003036084F834205A
:100E900084F835109DE7012084F83500E16C0029C5
:100EA0001CD002B02046BDE8F05F08477449884274
:100EB0001DD073491431884219D0714928318842B4
:100EC00015D06F493C31884211D06D49503188426C
:100ED0000DD06B496431884209D000E086E0684952
:100EE0007831884203D066498C3188427ED194F8AB
:100EF0005C800427016808F01F0807FA08F717EA62
:100F00000C0F009746D04F0744D500980F04686037
:100F100003D5C8033CD4A16CC1E7880638D4206847
:100F2000B0422DD054494839884229D0504527D065
:100F3000584525D05049884222D04F49183188421F
:100F40001ED04D49303188421AD04B494831884231
:100F500016D0484514D04949884211D04749183124
:100F600088420DD090420BD044494831884207D086
:100F7000704505D0984203D040499031884203D152
:100F8000016821F0080102E0016821F0040101601C
:100F9000216C84E7022707FA08F717EA0C0F00977D
:100FA0004ED08F074CD500980F04686003D5C80356
:100FB00044D4616C73E7880640D42068B0422FD0D7
:100FC0002D49483988422BD0504529D0584527D043
:100FD0002949884224D028491831884220D02649FE
:100FE000303188421CD02449483100E041E0884239
:100FF00016D0484514D02149884211D01F491831D4
:1010000088420DD090420BD01C494831884207D00D
:10101000704505D0984203D018499031884203D1D9
:10102000016821F0140102E0016821F00A01016069
:10103000002184F83410012084F83500E16B2EE79C
:10104000082202FA08F212EA0C0F12D0090710D592
:10105000016821F00E01016094F85C10012000226B
:1010600001F01F0100FA01F16960606584F8342025
:1010700012E7BDE8FC9F0000700002402804024017
:10108000085402582DE9F05F044600F05BFC002C88
:1010900007467DD0E34E022120684FF00308DFF8B9
:1010A00088934FF00005DFF884A3B042DFF880B3E7
:1010B00034D0DC4A1832904230D048452ED05045CA
:1010C0002CD058452AD0DA4A1832904226D0D84A35
:1010D0003032904222D0D64A483290421ED0D54A71
:1010E00090421BD0D34A1832904217D0D14A3032A6
:1010F000904213D0CF4A483290420FD0CD4A60324E
:1011000090420BD0CB4A7832904207D0C94A9032F5
:10111000904203D0C74AA83290427DD184F834501F
:1011200084F83510B0422ED0BE49183188422AD0FA
:10113000484528D0504526D0584524D0BC491831C0
:10114000884220D0BA49303188421CD0B849483151
:10115000884218D0B749884215D0B649183188421C
:1011600011D0B449303188420DD0B249483188425B
:1011700009D0B0496031884205D0AE497831884203
:1011800001D0AC499031016821F00101016008E013
:1011900027E100BF00F0D6FBC01B052801D92021A4
:1011A0001CE120680068C007F4D104F10800216840
:1011B000D4E9053C8E4685C809681043D4E9072860
:1011C0001F43636A38439C4F40EA0C001043394088
:1011D00040EA0800042B40EA010003D1D4E90B12D5
:1011E00011430843954909686FF30F01B1F1005F9E
:1011F0000FD36168A1F12902052A08D9163A032AFA
:1012000005D9083A012A02D94F39032901D840F4F7
:101210008010CEF8000000E023E02068676A406993
:10122000042F20F0070047EA00070DD1D4E90A0196
:10123000074349B12046FFF771FA28B140206065A5
:10124000012184F83510CCE0206847612046FFF783
:1012500083F994F85C203F2102F01F0291408160E5
:1012600054E0774A90421BD0754B1433984217D004
:10127000734B2833984213D0714B3C3398420FD0B4
:101280006F4B503398420BD06D4B6433984207D06C
:101290006B4B7833984203D0694B8C3398427DD1A5
:1012A000684B84F8345084F835100168A26801EA6C
:1012B000030E402A73D0802A72D00022D4E903782A
:1012C000D4E9053142EAD70242EAD8085C4AD4E9B7
:1012D000077C48EAD30848EAD10141EAD7015242E3
:1012E00041EA1C11142341EA0E01016020681044F8
:1012F000B0FBF3F08000E0652046FFF72DF994F88D
:101300005C20012102F01F02914041602068B04240
:1013100057D044491831884253D0484551D05045A0
:101320004FD058454DD042491831884249D04049A4
:101330003031884245D03E494831884241D03D490C
:1013400088423ED03B49183188423AD03949303141
:10135000884236D037494831884232D035496031E9
:1013600088422ED03349783188422AD03149903191
:10137000884226D02F49A831884222D0304988425D
:101380001FD02F49143188421BD02D492831884263
:1013900017D02B493C31884213D002E01DE017E002
:1013A00018E02749503188420BD0254964318842E2
:1013B00007D023497831884203D021498C318842B3
:1013C00029D12046FFF722F9A06880280CD00CE034
:1013D000102273E74FF4804270E74021616584F882
:1013E00035800120BDE8F09F6560216E207908609E
:1013F000D4E9190141606068401E072808D82046DA
:10140000FFF752F9E06E0560D4E91C01416002E08B
:10141000E566256765670120656584F8350000206D
:10142000E0E7000010000240400002405800024087
:1014300070000240100402403F8010FE0010005C6B
:10144000085402580F00FEFF2DE9F84F04008C46A7
:101450004FF00000009013D094F83400012811D010
:1014600094F835500120002184F83400012D0BD070
:1014700084F83410C202009062650098BDE8F88FCD
:101480000120FBE70220F9E78C4D0226206884F852
:101490003560A8428A4D61658A4E8B4FDFF82C82F9
:1014A000DFF82C92DFF82CA2DFF82CB226D0A8426D
:1014B00024D0B04222D0B84220D040451ED048456A
:1014C0001CD050451AD0584518D08449884215D0B0
:1014D00082491831884211D08049303188420DD07C
:1014E0007E494831884209D07C496031884205D024
:1014F0007A497831884201D078499031016821F0E9
:101500000101016061462046FFF732F96B4920680E
:1015100088422CD0A8422AD0B04228D0B84226D047
:10152000404524D0484522D0504520D058451ED0B3
:101530006A4A90421BD0694A1832904217D0674AD3
:101540003032904213D0654A483290420FD0634AFD
:10155000603290420BD0614A7832904207D05F4AA5
:101560009032904203D05D4AA83290420CD102687A
:1015700022F01E0242F016020260206C88B1206840
:10158000026842F008020BE0026822F00E0242F00C
:101590000A020260206C20B12068026842F0040256
:1015A0000260206888424BD0A84249D0B04247D060
:1015B000B84245D0404543D0484541D050453FD042
:1015C00058453DD0454A90423AD0444A183290425C
:1015D00036D0424A3032904232D0404A483290426D
:1015E0002ED03E4A603290422AD03C4A7832904215
:1015F00026D03A4A9032904222D0384AA8329042BD
:101600001ED0374A90421BD0354A1432904217D030
:10161000334A2832904213D0314A3C3290420FD0A4
:101620002F4A503290420BD02D4A6432904207D05C
:101630002B4A7832904203D0294A8C3290420DD105
:10164000206E0268D20303D5026842F48072026001
:10165000E06E18B1026842F480720260206888422D
:1016600026D0A84224D0B04222D0B84220D0404553
:101670001ED048451CD050451AD0584518D017499F
:10168000884215D015491831884211D0134930319C
:1016900088420DD011494831884209D00F49603144
:1016A000884205D00D497831884201D00B499031EC
:1016B000016841F001010160DFE600001000024016
:1016C00028000240400002405800024070000240E2
:1016D00088000240A0000240B8000240100402400E
:1016E0000854025870B5044600F02CF90546601CF9
:1016F00002D004480078044400F024F9401BA042C2
:10170000FAD370BD6C0000242DE9FC4F01257E4CFE
:1017100000234FF0030A4FF0B04E4FF00F0BEBE0F9
:1017200005FA03F637403A0077D04F68012F05D00D
:10173000022F03D0112F01D0122F1AD187684FEA40
:101740004308D1F80CC00AFA08F927EA09070CFA8D
:1017500008FC4CEA070CC0F808C0476891F804C0C0
:10176000B743CCF3001C0CFA03FC4CEA070CC0F89E
:1017700004C0C6684FEA430CD1F80880E1460AFA73
:101780000CF7BE43019708FA09F848EA0608C0F8C2
:101790000C804E68022E01D0122E12D1DE084FEAC4
:1017A000437C00EB860600960F69366A4FEADC6CD4
:1017B0000BFA0CF807FA0CF726EA08063743009EE6
:1017C00037620E790768DDF804C006F0030606FAF2
:1017D00009F627EA0C073E4306604E68F6001CD562
:1017E0004A4E376847F00207376036689F0706F0B1
:1017F0000206009623F0030606F1B046B1463F0FFD
:10180000D6F80864DFF808810BFA07FC404526EAA1
:101810000C0603D14FF0000C41E06CE0DFF8F4C09F
:10182000604502D14FF0010C39E0DFF8ECC06045B3
:1018300002D14FF0020C32E0DFF8E0C0604502D187
:101840004FF0030C2BE0DFF8D8C0604502D14FF019
:10185000040C24E0DFF8CCC0604502D14FF0050C49
:101860001DE0DFF8C4C0604502D14FF0060C16E061
:10187000DFF8B8C0604502D14FF0070C0FE0DFF889
:10188000B0C0604502D14FF0080C08E0DFF8A4C0FA
:10189000604502D14FF0090C01E04FF00A0C0CFA40
:1018A00007FC4CEA060CC9F808C426684F6826EA0B
:1018B0000206FF0300D51643266066684F6826EAD5
:1018C0000206BF0300D516436660D1F804C0764611
:1018D000DEF800705FEACC2C27EA020700D5174338
:1018E0003760D1F804C077685FEA8C2C27EA0207DA
:1018F00000D5174377605B1C0A681746DA407FF40F
:101900000FAFBDE8FC8F000080000058F44402587F
:10191000000002580004025800080258000C025847
:10192000001002580014025800180258001C0258F7
:10193000002002580024025801480068000C70473B
:101940000010005C01488068704700006C000024B3
:101950000248816802781144816070476C0000245D
:10196000032010B500F086F800F0E8FF0F4A104998
:1019700014681368C4F3032203F00F038A5CC95C84
:1019800002F01F0201F01F01D0400A4A20FA01F1C3
:10199000116009490860002000F010F808B101202A
:1019A00010BD00F02BF8002010BD000018440258B4
:1019B000B26100087C0000247800002470B50D4D51
:1019C00004462878A0B14FF47A71B1FBF0F00A49CF
:1019D0000968B1FBF0F001F0D1FA48B9102C07D238
:1019E00000222146501E00F025F800206C6070BDDA
:1019F000012070BD6C00002478000024054808B563
:101A0000016841F002010160006800F002000090EE
:101A100008BD0000F4440258002809DB410900F029
:101A20001F028900012001F1E0219040C1F800016E
:101A3000704700000E4BF0B41B680D46C3F3022341
:101A4000C3F10706042E00D90426191D072901D267
:101A5000002300E0DB1E012404FA06F19C40491E2D
:101A60002940641E994014402143F0BC03F0C1BDDD
:101A70000CED00E0064900F0070210B54FF6FF0438
:101A80000868044B204040EA02201843086010BD5B
:101A90000CED00E00000FA05134970B50A68D24366
:101AA000520705D5096801F00701814213D118E0FA
:101AB0000A6822F0070202430A60FFF743FF0A4D5B
:101AC0004FF47A760446083D07E000BFFFF73AFF7F
:101AD000001BB04201D9012070BD2868C0438004BA
:101AE000F4D4002070BD00000C48025810B500F07E
:101AF000DFFE05490968054AC1F30211515C01F096
:101B00001F01C84010BD000020440258B261000807
:101B1000494930B5484C0B1D0A68143409681D68E2
:101B2000246802F00303C5F30012C1F30531C4F3C6
:101B3000CC04002914FB02F200EE102AF8EE400A51
:101B400075D03F4A9FED3D1AB7EE000A6BB1DFED4D
:101B50003D1A012B01D0022B64D002EE101A11683D
:101B6000F8EE422A81EEA22A21E0334C283C236879
:101B70009B0612D5344B246801EE901A1168C4F309
:101B8000C104F8EE612AE34001EE903AC1F3080186
:101B9000F8EE611A81EEA22A0BE001EE901ADFED59
:101BA0002B2A00BFF8EE611A116882EEA12AC1F358
:101BB000080101EE901A1168F8EE611A40EE811AE0
:101BC00071EE800A62EE200AC1F3462101EE101A7E
:101BD000B8EE411A31EE001AC0EE811ABCEEE11ADD
:101BE00080ED001A1168C1F3064101EE101AB8EE3B
:101BF000411A31EE001AC0EE811ABCEEE11A80EDF6
:101C0000011A1168C1F3066101EE101AB8EE411A0B
:101C100031EE000A80EE801ABCEEC10A80ED020AA5
:101C200030BD04E001EE901ADFED092ABAE7002189
:101C3000016041608160F3E72844025800000039E8
:101C4000384402580024744A0090D0030024744C95
:101C500020BCBE4B494930B5484C0B1D0A681C34AA
:101C600009681D68246802F00303C5F30022C1F36C
:101C70000551C4F3CC04002914FB02F200EE102A33
:101C8000F8EE400A75D03F4A9FED3D1AB7EE000AC4
:101C90006BB1DFED3D1A012B01D0022B64D002EEB7
:101CA000101A1168F8EE422A81EEA22A21E0334C84
:101CB000283C23689B0612D5344B246801EE901A09
:101CC0001168C4F3C104F8EE612AE34001EE903AD2
:101CD000C1F30801F8EE611A81EEA22A0BE001EED1
:101CE000901ADFED2B2A00BFF8EE611A116882EE20
:101CF000A12AC1F3080101EE901A1168F8EE611AE9
:101D000040EE811A71EE800A62EE200AC1F346218C
:101D100001EE101AB8EE411A31EE001AC0EE811A27
:101D2000BCEEE11A80ED001A1168C1F3064101EE24
:101D3000101AB8EE411A31EE001AC0EE811ABCEE4C
:101D4000E11A80ED011A1168C1F3066101EE101A63
:101D5000B8EE411A31EE000A80EE801ABCEEC10ADC
:101D600080ED020A30BD04E001EE901ADFED092A91
:101D7000BAE70021016041608160F3E7284402581E
:101D800000000039404402580024744A0090D003F7
:101D90000024744C20BCBE4B2DE9FC5F044650F877
:101DA000241B002500902E460801FE4FDFF8F88323
:101DB0001DD5606E50B1B0F5801F0CD0B0F5001F7E
:101DC0000ED0B0F5401F1DD001250FE0386840F45B
:101DD0000030386016E00221201D02F0DFFB03E036
:101DE0000098022102F06AFC05000BD02E462088E4
:101DF000C00523D5606D05281ED2DFE800F00C1168
:101E0000161B1B00626ED8F8001021F4401111431C
:101E1000C8F80010EBE7386840F40030386009E09B
:101E20000021201D02F0BAFB03E00098002102F01F
:101E300045FC05466DB100E001252E462088800551
:101E400028D5A06D80281ED00CDC90B140280ED182
:101E500014E0626DD8F8001021F007011143C8F8B2
:101E60000010EBE7C02813D0B0F5807F10D001251B
:101E70000FE0386840F40030386009E00021201D90
:101E800002F08CFB03E00098002102F017FC0546ED
:101E900095B12E462088DFF81093400509F1080916
:101EA0002CD5D4F8A400B0F5800F20D00DDCA0B163
:101EB000B0F5001F0FD115E0A26DD8F8001021F485
:101EC000E0711143C8F80010E4E7B0F5C00F13D07B
:101ED000B0F5000F10D001250FE0386840F4003055
:101EE000386009E00021201D02F058FB03E0009853
:101EF000002102F0E3FB054675B12E46208800055F
:101F00002DD5D4F8A800B0F1007F21D00EDCA8B107
:101F1000B0F1807F10D116E0D4F8A420D9F80010D9
:101F200021F460011143C9F80010E7E7B0F1407FE8
:101F300013D0B0F1806F10D001250FE0386840F465
:101F40000030386009E00021201D02F027FB03E08B
:101F50000098002102F0B2FB05466DB12E462068C4
:101F600080011FD5A06CD8B110280FD0202812D026
:101F7000302815D0012514E0D4F8A820D9F8001095
:101F800021F0E0611143C9F80010E8E7386840F437
:101F90000030386004E00221201D02F0FFFA0546FF
:101FA0006DB12E462088C0042BD5E06DB0F5005FE2
:101FB00020D00DDCA0B1B0F5805F0FD115E07A48DC
:101FC000A26C001F016821F0300111430160E9E7B4
:101FD000B0F5405F13D0B0F5804F10D001250FE071
:101FE000386840F40030386009E00021201D02F01C
:101FF000D5FA03E00098002102F060FB054685B1A8
:102000002E462088800429D5206EB0F5403F23D08D
:1020100010DC08B3B0F5803F14D0B0F5003F0FD10D
:1020200015E0E26DD8F8001021F4E0411143C8F842
:102030000010E6E7B0F5802F0ED0B0F5A02F0BD042
:1020400001250AE00121201D02F0A8FA03E0009812
:10205000012102F033FB05468DB12E462088400455
:102060002AD5D4F8AC00B0F1405F23D010DC08B31F
:10207000B0F1805F14D0B0F1005F0FD115E0226E97
:10208000D8F8001021F4E0211143C8F80010E5E76A
:10209000B0F1804F0ED0B0F1A04F0BD001250AE077
:1020A0000121201D02F07AFA03E00098012102F0DC
:1020B00005FB05466DB12E46208800041FD5E06E55
:1020C000D8B1B0F1805F0ED0B0F1005F10D0012523
:1020D00014E0D4F8AC20D9F8001021F0E04111430D
:1020E000C9F80010E8E7386840F40030386004E0D0
:1020F0000121201D02F052FA05466DB12E462068DE
:10210000C0011ED5606CD0B101280ED0022811D0BC
:10211000032814D0012513E0E26ED8F8001021F056
:1021200040511143C8F80010E9E7386840F4003026
:10213000386004E00221201D02F030FA054685B126
:102140002E462068DFF85CB04002ABF11C0B57D57F
:102150001648016841F480710160FFF7F3FB824685
:102160000EE01148626C001F016821F00301114369
:102170000160E6E7FFF7E6FBA0EB0A0064283DD824
:102180000A480068C005F5D57DBBDFF81CA0B4F88F
:10219000B0100AF1200ADAF8000001F4407100F4EE
:1021A000407005E02C440258504402580048025840
:1021B000884211D0DAF80010DAF8002021F44071DA
:1021C00042F48032CAF80020DAF8002022F480328B
:1021D000CAF80020CAF80010D4F8B000B0F5807F2B
:1021E00021D1FFF7AFFB019019E008E0FFF7AAFB50
:1021F0000199411A41F28830814210D903252E46B7
:102200002078DFF830A4C0073DD0A06F182838D060
:1022100026DC80B3082829D0102825D12CE0DAF854
:1022200000008007E2D5D4F8B010C1F301200328E4
:1022300058460DD0016821F47C510160B4F8B020FB
:10224000DAF80010C2F30B021143CAF80010D7E706
:10225000F94A036802EA111223F47C511143ECE7B6
:1022600020280ED028280CD001250BE00121201DAC
:1022700002F094F904E004E00098012102F01EFA53
:1022800005465DB12E46207880071ED5606F062872
:1022900019D2DFE800F0160C11161616A26FDAF844
:1022A000001021F038011143CAF80010EBE70121BA
:1022B000201D02F073F903E00098012102F0FEF9FD
:1022C000054675B100E001252E46207840071FD550
:1022D000D4F89000062819D2DFE800F0160C111689
:1022E0001616626FDAF8001021F007011143CAF8E0
:1022F0000010EAE70121201D02F050F903E00098E8
:10230000012102F0DBF905469DB100E001252E46D2
:10231000207880062BD5D4F88C00B0F1405F24D013
:1023200011DC10B3B0F1805F15D0B0F1005F10D1B7
:1023300016E0D4F89020D9F8001021F007011143DD
:10234000C9F80010E4E7B0F1804F0ED0B0F1A04F13
:102350000BD001250AE00021201D02F01FF903E047
:102360000098022102F0AAF905468DB12E46207888
:1023700040062BD5D4F89800B0F5406F24D011DC7E
:1023800010B3B0F5806F15D0B0F5006F10D116E026
:10239000D4F88C20DAF8001021F0E0411143CAF89B
:1023A0000010E4E7B0F5805F0ED0B0F5A05F0BD071
:1023B00001250AE00021201D02F0F0F803E000985A
:1023C000022102F07BF905468DB12E4620780006E9
:1023D0002BD5D4F89C00B0F5C04F24D011DC10B33D
:1023E000B0F5005F15D0B0F5804F10D116E0D4F8ED
:1023F0009820D9F8001021F4E0511143C9F80010D9
:10240000E4E7B0F5004F0ED0B0F5204F0BD001251A
:102410000AE00021201D02F0C1F803E0009802212B
:1024200002F04CF905464DB12E46207800071ED526
:10243000D4F88000B0F5805F0AD00FE0D4F89C207B
:10244000D9F8001021F460411143C9F80010ECE7FD
:102450000098022102F032F900B10126D4F8802060
:10246000DAF8001021F440511143CAF80010207826
:10247000C00613D5D4F89400B0F5807F05D100983C
:10248000022102F01BF900B10126D4F89420D9F8FA
:10249000001021F440711143C9F8001020680003B6
:1024A00016D5D4F8A00038B1B0F5803F09D0B0F50A
:1024B000003F0BD001250AE00021201D02F06EF83C
:1024C00003E00098022102F0F9F8054685B12E4696
:1024D0002068400322D5D4F88400B0F5801F11D0C5
:1024E000B0F5001F13D0B0F5401F15D0012514E042
:1024F000D4F8A020D9F8001021F440311143C9F8D4
:102500000010E5E7386840F40030386004E00098D7
:10251000012102F0D3F8054655B12E462068C003CC
:102520001CD5E06C70B1B0F5803F10D0012514E0EF
:10253000D4F88420DAF8001021F440111143CAF8CD
:102540000010EBE7386840F40030386004E0022106
:10255000201D02F023F80546CDB12E4620688000EC
:1025600005D50098022102F0A9F800B101262068E3
:1025700080031BD5E06FB8B1B0F5807F10D0B0F507
:10258000007F11D0B0F5407F0ED001250DE0294825
:10259000E26C0838016821F4803111430160DDE705
:1025A000386840F400303860F5B32E462068C00229
:1025B00007D5226FD8F8001021F000411143C8F868
:1025C00000102068C00008D5D4F8B420DBF8001053
:1025D00021F480411143CBF800102068800207D518
:1025E000A26ED8F8001021F080711143C8F80010D5
:1025F000206840000CD5DBF8001021F40041CBF836
:102600000010DBF80010D4F8B8201143CBF800100C
:102610002068002807DA0748226D0838016821F091
:1026200040511143016000E008E086B10120BDE89F
:10263000FC9F000054440258CFFFFF00E26FDAF81D
:10264000001021F440711143CAF80010AEE70020D9
:10265000EDE700002DE9F05F04000F467ED0DFF8C3
:102660003882D8F8000000F00F00B8420CD2D8F839
:10267000001021F00F013943C8F80010D8F800000D
:1026800000F00F00B84269D12078844D40070AD588
:102690002069296801F07001884204D9296821F075
:1026A00070010143296020787C4E361D00070AD551
:1026B0006069316801F07001884204D9316821F005
:1026C0007001014331602078C0060AD5A0693168E5
:1026D00001F4E061884204D9316821F4E0610143EA
:1026E00031602078DFF8B4B180060BF1080B0CD50F
:1026F000E1695846DBF8002002F07002914204D9EB
:10270000026822F070020A430260207880070AD52E
:10271000E068296801F00F01884204D9296821F096
:102720000F01014329602078C0073ED05B49A268B1
:102730002868183920F47060104328606068022807
:1027400018D0032819D00968012819D04907002991
:102750004ADADFF848A1AAF1080A00E044E0DAF812
:10276000002022F007020243CAF80020FFF7EAF82F
:10277000814612E009688903E9E709688901E6E70B
:10278000C905E4E7FFF7DEF8A0EB090141F2883064
:10279000814202D90320BDE8F09F6168DAF80000A9
:1027A00000F03800B0EBC10FECD1207880070AD5DB
:1027B000E068296801F00F01884204D2296821F0FD
:1027C0000F0101432960D8F80010404601F00F01C5
:1027D000B9420BD9016821F00F013943016000684B
:1027E00000F00F00B84201D00120D4E72078400764
:1027F0000AD52069296801F07001884204D229684D
:1028000021F0700101432960207800070AD5606932
:10281000316801F07001884204D2316821F0700102
:10282000014331602078C0060AD5A069316801F4FF
:10283000E061884204D2316821F4E06101433160F3
:10284000207880060CD5E1695846DBF8002002F0BC
:102850007002914204D2026822F070020A430260C0
:1028600000F06CF80E492A682B68C2F3032203F0CB
:102870000F038A5CC95C02F01F0201F01F01D04007
:10288000084A20FA01F1116007490860074800680A
:10289000BDE8F05FFFF792B80020005218440258DC
:1028A000B26100087C00002478000024700000243D
:1028B00030B500F043F80B4A0B490C4B156814680F
:1028C000C5F3032204F00F048A5C095D02F01F02C5
:1028D00001F01F01D040064A20FA01F11960106092
:1028E000084630BD18440258B26100087C0000243C
:1028F0007800002400B5FFF7DBFF05490968054AA9
:10290000C1F30211515C01F01F01C84000BD00007D
:102910001C440258B261000800B5FFF7C9FF054921
:102920000968054AC1F30221515C01F01F01C8404A
:1029300000BD00001C440258B2610008454970B552
:1029400045480968434B103B11F0380208D001118B
:10295000082A03D0102A0BD0182A0BD0084670BDC5
:1029600019688906FBD51968C1F3C101C84070BD5B
:102970003A4870BD3749374D18310C1D24350A6867
:10298000096826682D6802F0030406F00102C1F30D
:102990000511C5F3CC0515FB02F200EE102AB8EEC6
:1029A000400AE9B32F4ADFED2E0AB7EE001A6CB1E8
:1029B000DFED2D1A012C01D0022C43D002EE101AAB
:1029C0001068F8EE422A81EEA22A1EE01C68A406D6
:1029D00011D51B6801EE901A1168C3F3C103F8EE1C
:1029E000612AD84001EE900AC1F30800F8EE611A9E
:1029F00081EEA22A0BE001EE901ADFED1C2A00BF47
:102A0000F8EE611A106882EEA12AC0F3080001EE08
:102A1000900AF8EE611A40EE201A31EE810A00E0C9
:102A200015E022EE000A1068C0F34620401C00EEBC
:102A3000900AF8EE600A80EE201ABCEEC10A10EE91
:102A4000100A70BD01EE901ADFED092AD8E70020C8
:102A500070BD0000104402580090D00340787D0102
:102A600000000039304402580024744A0024744C99
:102A700020BCBE4B2DE9F05F04007CD0FF4F2078D6
:102A8000FE4D1837DFF8F493103DC00748D0D9F851
:102A90000000396800F03800102815D0182803D13C
:102AA00001F0030002280FD06068B0F5803F12D01B
:102AB00010B1B0F5A02F18D0286820F4803028601D
:102AC000286820F4802009E02868800328D5606801
:102AD0000028D2D024E0286840F480302860606864
:102AE00088B1FEF72FFF064609E0286840F48020F1
:102AF0002860F0E7FEF726FF801B64287ED8286850
:102B00008003F7D50CE0FEF71DFF064605E000BF89
:102B1000FEF718FF801B6428F0D828688003F7D4DC
:102B2000207841F20308D54E0C3E800753D5D9F8E2
:102B30000000396810F038000ED0182801D188073D
:102B40000AD0E068A8B3296821F01901014329607F
:102B5000FEF7F8FE82461BE02868400702D5E068D1
:102B600000288AD0FEF7E8FE40451BD8206940289F
:102B700012D0316800E0CCE021F47C3141EA003031
:102B8000306028E0FEF7DEFEA0EB0A000228B5D890
:102B900028684007F6D5E5E7306820F47C3040F43B
:102BA0000030EDE7207C316821F0FE4141EA006011
:102BB000E6E7FFE7286820F001002860FEF7C2FE84
:102BC000824605E0FEF7BEFEA0EB0A00022895D87B
:102BD00028684007F6D42078C0065FD5D9F80000F1
:102BE000DFF898B2396800F03800ABF1040B082820
:102BF00012D0182805D101F0030000E0EAE0012816
:102C00000AD0E0690028286838D040F080002860A9
:102C1000FEF798FE824623E02868C00523D5E069C8
:102C2000802876D11FE0206A202821D0316821F049
:102C3000F84141EA8060306030E000BF94F8201035
:102C4000DBF8002022F07C5242EA0161CBF8001050
:102C500024E000BFFEF776FEA0EB0A00022896D81B
:102C60002868C005F6D5FEF767FE4045E6D8DAE7E6
:102C7000306820F0F84040F08040DCE720F0800031
:102C80002860FEF75FFE064605E000BFFEF75AFE2D
:102C9000801B02289BD82868C005F7D4207800073D
:102CA00029D576486169643000298046016811D0D1
:102CB00041F001010160FEF745FE064605E000BF58
:102CC000FEF740FE801B0228C9D8D8F80000800714
:102CD000F6D510E021F001010160FEF733FE064653
:102CE00005E000BFFEF72EFE801B022872D8D8F840
:102CF00000008007F6D42078800623D5A06900283C
:102D0000286810D040F480502860FEF71BFE06466D
:102D100005E02CE1FEF716FE801B02285AD8286831
:102D20008004F7D50EE020F480502860FEF70AFEFC
:102D3000064604E0FEF706FE801B02284AD82868F3
:102D40008004F7D4207840074FD5DFF83481D8F8D5
:102D5000001041F48071C8F80010FEF7F3FD06463C
:102D600005E000BFFEF7EEFD801B642832D8D8F8DE
:102D70000000C005F6D5414EA068603601280AD093
:102D800008B1052813D0306820F0010030603068A9
:102D900020F0040002E0306840F001003060A068DC
:102DA00041F2883A90B1FEF7CDFD80460AE03068E6
:102DB00040F004003060EEE7FEF7C4FDA0EB080130
:102DC000514507D830688007F6D50EE0FEF7BAFD0A
:102DD000804607E084E000BFFEF7B4FDA0EB0801E9
:102DE00051457DD830688007F6D4606AF0B3DFF8CB
:102DF0008C80D9F8001008F12008C1F3C201032922
:102E00006FD00228286820F08070286003D0FEF779
:102E100099FD044680E0FEF795FD064605E000BFFB
:102E2000FEF790FD801B022873D828688001F7D434
:102E3000E26A40F2F331386854F8283F884340EAA8
:102E4000021018433860217B4FF4FE0C22894FF0AA
:102E5000FE47208A4902267D521E401EA1F50071C0
:102E600089B20CEA0040C2F3080200E081E011439D
:102E7000761E0143014807EA066203E01044025847
:102E8000004802581C3011433B4AC8F80010016842
:102E900021F00101016011684FF6F876236AB14311
:102EA00041EAC30111600168A26921F00C011143DC
:102EB00001600168E26921F00201114301600168CB
:102EC00041F480310160016841F400310160016822
:102ED00041F480210160016841F00101016001E0DD
:102EE00017E01DE0286840F080702860FEF72AFD9A
:102EF000044604E0FEF726FD001B022809D82868D6
:102F00008001F7D535E000BFFEF71CFD001B02284D
:102F100002D90320BDE8F09F28688001F4D428E09E
:102F200039680128D8F8000021D0A26A01F0030313
:102F300093421CD1E26AC1F305118A4217D1216B79
:102F4000C0F30802491E8A4211D1616BC0F34622C8
:102F5000491E91420BD1A16BC0F30642491E91421A
:102F600005D1E16BC0F30660491E814201D001200A
:102F7000D0E70020CEE7000034440258401EB0F1F4
:102F8000807F10B501D3012010BD4FF0E0246061B7
:102F90000F21601702F02DFB0020A06107212161A5
:102FA00010BD00002DE9F04390F83C20012A42D0EA
:102FB000012280F83C2051F80C4BDFF880804FF064
:102FC000000991E8680051E9022723F44073B1F841
:102FD0000CC03B43CF6923F480631343026823F49E
:102FE0000063234323F4805343EA050323F400538F
:102FF00043EA060323F4804343EA07030C3923F42E
:103000007023424543EA0C4302D00D4CA2420CD13E
:103010008D8C23F47006D1E9073446EA055121F07E
:103020008071194321F000732343536480F83C906E
:103030000020BDE8F0830220FBE700000000014013
:1030400000040140F0B590F83C20012A38D01D4E14
:10305000012480F83C40022280F83D2002681A4D8D
:103060005368B242D2F808C001D0AA4203D14F68D7
:1030700023F470033B430F6823F070031F43576032
:103080000268B24210D0B2F1804F0DD00F4B9A427D
:103090000AD00F4B9A4207D00E4B9A4204D0AA4254
:1030A00002D00D4B9A4204D189682CF08003194359
:1030B0009160002180F83D4080F83C100846F0BD4A
:1030C0000220F0BD00000140000401400004004067
:1030D00000080040000C00400018004010B504003B
:1030E00003D094F83D0010B107E0012010BD00208E
:1030F00084F83C00204600F023F8022084F83D00CC
:103100002068211D01F0D2FC012084F8480084F8D9
:103110003E0084F83F0084F8400084F8410084F8C1
:10312000420084F8430084F8440084F8450084F8A1
:10313000460084F8470084F83D00002010BD0000E0
:1031400008B501681C481D4A814205D1106840F04D
:1031500002001060106809E01848194B08309942C5
:1031600008D1016841F002010160006800F002002E
:10317000009008BD134B994207D1106840F0400001
:103180001060106800F04000F2E70F4A914207D14A
:10319000016841F400310160006800F40030E7E7A5
:1031A0000A4A9142E5D1016841F48021016000683A
:1031B00000F48020DCE7000000040040E8440258EE
:1031C0000004014000180040004401400048014054
:1031D00090F83D10012901D001207047084A0221D2
:1031E00080F83D10006881681140062906D0B1F5CD
:1031F000803F03D0016841F0010101600020704769
:103200000700010070B5044690F83C00012814D076
:10321000394B012584F83C50022084F83D00226897
:103220009068184020F47F4090600868702828D08B
:1032300010DC10F00F0F03D04BE04FF0020070BD18
:103240004FEA2012072A44D2DFE802F051515151CF
:1032500049323A00B0F1101F49D009DCB0F5805F67
:1032600037D0B0F5005F17D0B0F5801F31D13EE008
:10327000A0F5801120393AD0102938D0202928D142
:1032800035E04A682068D1E9021301F07EFC20682D
:10329000816841F0770109E04A682068D1E90213AA
:1032A00001F073FC2068816841F48041816010E086
:1032B000CA684968206801F003FE2068502106E0D2
:1032C000CA684968206801F00CFE2068602101F09E
:1032D00065FC002084F83D5084F83C0070BDCA684D
:1032E0004968206801F0ECFD20684021EFE7226882
:1032F00001461046EBE7000088FFCEFF2DE9F041C4
:1033000004000D4603D094F83D0018B108E00120F8
:10331000BDE8F081002084F83C00204600F04CF825
:10332000244A022084F83D002068816811408160B1
:103330002068211D01F0BAFB226840F20336AF6914
:1033400040F60C4C2B684FF2F00EA86891680B43C6
:103350009169B14341EA07210843D5E9031720EAFF
:103360000C00D5E9076C20EA0E00D2F820E03F01FE
:1033700040EA062668686D69314347EA0C37936076
:1033800023680F4301219F612EF0AA0242EA051330
:1033900022681843106284F8481084F83E1084F8BC
:1033A0003F1084F8441084F8451084F83D10002044
:1033B000AEE70000F8BFFEFF70B586B005461421E9
:1033C0006846FDF750F82B6800244648022544491A
:1033D0000126834219D142481030026842F00102AE
:1033E0000260006800F001000590086840F01000DD
:1033F00008600868694600F0100005904FF42060EE
:1034000000903948CDE9015447E0384AB3F1804F84
:1034100037481AD0374EB34246D1106840F0040006
:103420001060106800F004000590086840F0080083
:1034300008600868694600F0080005904FF44050A5
:1034400000902D48CDE9015446E0136843F0010394
:103450001360126802F0010205920A6842F001024C
:103460000A600A6802F0010205920A6842F002024C
:103470000A60096801F0020105914FF400410091D2
:10348000CDE90154CDE903466946FEF73DF9082030
:1034900000901A486946CDE90154CDE9034600BFC2
:1034A000FEF732F906B070BD154EB342FAD113687B
:1034B00043F008031360126802F0080205920A68DC
:1034C00042F001020A60096801F00101059103213F
:1034D0000091CDE901546946CDE90345E0E70000DC
:1034E000E04402580000014000100258E84402582D
:1034F0000000025800080040000C02580004025866
:10350000000C004070B504464FF0020094F83E20D5
:1035100094F83F5094F8446094F8453021B1042960
:103520000DD0012A1AD113E0012A17D1012E15D18D
:1035300084F83E0084F844000021206820E0012D3A
:103540000CD1012B0AD184F83F0084F8450014E027
:10355000012D03D1012E01D1012B01D0012070BD1D
:1035600084F83E0084F83F0084F8440084F8450065
:1035700001222068002101F0FBFA206801220421C9
:1035800001F0F6FA2068016841F0010101600020B5
:1035900070BD000070B586B0064614216846FCF781
:1035A00062FF474B0024306802254349434A984252
:1035B000444E1BD1086840F001000860086800F024
:1035C00001000590086840F002000860086869463C
:1035D00000F00200059080200090CDE90154CDE973
:1035E00003451046FEF790F8132025E0364B98422D
:1035F00016D1086840F0040008600868032100F054
:10360000040005904FF440700090CDE901542F481C
:10361000CDE90341694600BFFEF776F806B070BDFC
:103620002B4B984210D1086840F0020008600868EF
:1036300000F002000590D8000090CDE90154CDE9DA
:10364000034569463046E7E7224B984211D10868A6
:1036500040F001000860086800F0010005900C20AF
:10366000009004211046CDE90154CDE9034169469B
:10367000D2E7194B0122984209D1086840F00200B4
:103680000860086800F00200059010020BE0134B80
:103690009842C3D1086840F002000860086800F052
:1036A0000200059058150090CDE90154CDE9034280
:1036B00069463046B0E70000E04402580000025876
:1036C00000040040000402580004014000080258B1
:1036D0000018004000400140004401400048014003
:1036E00070B5044690F83C000D4601280BD001202F
:1036F00084F83C000C2A45D007DC5AB1042A1BD0C0
:10370000082A78D12CE0022070BD102A4ED0142A4D
:1037100071D15DE0206801F04BFA2068816941F0C9
:10372000080181612068816921F0040181612068BC
:103730002A698169114311E0206801F08DFA20683F
:10374000816941F4006181612068816921F48061AF
:10375000816120682969826942EA012181614AE028
:10376000206801F0C5FA2068C16941F00801C16113
:103770002068C16921F00401C16120682A69C1691A
:10378000114311E0206801F0F9FA2068C16941F4A1
:103790000061C1612068C16921F48061C161206854
:1037A0002969C26942EA0121C16124E0206801F06F
:1037B0001BFB2068416D41F0080141652068416DA7
:1037C00021F00401416520682A69416D114311E02F
:1037D000206801F03FFB2068416D41F400614165C4
:1037E0002068416D21F48061416520682969426D3E
:1037F00042EA01214165002084F83C0070BD10B50B
:10380000040003D094F83D0010B107E0012010BD82
:10381000002084F83C00204600F022F8022084F8C2
:103820003D002068211D01F041F9012084F8480085
:1038300084F83E0084F83F0084F8400084F841009A
:1038400084F8420084F8430084F8440084F845007A
:1038500084F8460084F8470084F83D00002010BD3D
:1038600008B500680649884208D10648016841F455
:1038700080310160006800F48030009008BD0000D5
:1038800000400140F044025810B504464FF00202D7
:1038900069B1042912D0082917D00C291CD010298D
:1038A00021D094F84300012824D0012010BD94F8C1
:1038B0003E000128F9D184F83E201DE094F83F0035
:1038C0000128F2D184F83F2016E094F84000012846
:1038D000EBD184F840200FE094F841000128E4D1B6
:1038E00084F8412008E094F842000128DDD184F8F2
:1038F000422001E084F843200122206801F038F9D9
:103900001149206888420BD01049884208D01049DC
:10391000884205D00F49884202D00F49884203D11E
:10392000416C41F40041416420680C4A81681140B7
:10393000062906D0B1F5803F03D0016841F00101AE
:103940000160002010BD00000000014000040140A3
:1039500000400140004401400048014007000100D0
:1039600030B590F87C10012918D0012280F87C2015
:103970002421C0F880100022202450F8601B0B681E
:103980000D6823F0005325F001050D60426050F8EA
:10399000601C0B6004620277104630BD022030BD0F
:1039A00070B5044690F87C0001281DD0012284F8EF
:1039B0007C202420C4F8800020680568026822F07A
:1039C000010202602068826822F060620A4382601D
:1039D000204601F099FA2268202100201560C4F8E1
:1039E000801084F87C0070BD022070BD70B5044664
:1039F00090F87C0001281DD0012284F87C2024202E
:103A0000C4F8800020680568026822F001020260A4
:103A10002068826822F060420A438260204601F0FA
:103A200073FA2268202100201560C4F8801084F801
:103A30007C0070BD022070BD704710B5040003D03B
:103A4000D4F8800010B107E0012010BD002084F8F8
:103A50007C00204600F026F82420C4F8800020686E
:103A6000016821F001010160204601F07FFB01287F
:103A7000EBD0A06A10B1204601F078FA20684168C6
:103A800021F4904141602068816821F02A01816021
:103A90002068016841F0010101602046BDE8104046
:103AA00001F0C8BA70B586B0064614216846FCF726
:103AB000DAFC2E4A002531682D4891424FF002026F
:103AC00033D12B4908310B6843F400230B6009689C
:103AD00001F400210591016841F0080101600068CE
:103AE000082100F00800059003208DE82500CDE9AD
:103AF000035120486946FDF707FE20483F211E4C30
:103B00000215831584E82300C4E903526561204649
:103B1000C4E9065325626562FDF7B4FA08B1FCF703
:103B200038FFB467A66306B070BD154B9942FAD151
:103B30000F4910310B6843F010030B60096801F066
:103B400010010591016841F0010101600068072141
:103B500000F0010005904FF4C0608DE82500CDE92C
:103B6000035108486946FDF7CFFDDCE7004C0040F3
:103B7000E0440258000C0258EC04002410000240FB
:103B8000001001400000025870B50446D0F88400CF
:103B9000202843D169B362B394F87C0001283DD05A
:103BA000A06F012684F87C600025A1652223A4F87B
:103BB0005C20C4F88850C4F88430E0B1184913463A
:103BC000C163A16F17480864A16F1748C864A06F4C
:103BD0000565A66D2168A06F32462431FDF734FCDF
:103BE00048B11021C4F88810202084F87C50C4F813
:103BF0008000012070BD84F87C502068016841F489
:103C0000807101602068816841F001018160206855
:103C1000816841F040018160002070BD022070BDCC
:103C2000E15000081D510008935000080068034946
:103C3000884202D1024802F025BA7047004C004089
:103C4000A000002470472DE9F8430446D0F8800016
:103C50001F4616460D46202852D1DDB1D6B194F844
:103C60007C0001284CD0012084F87C0021224FF0F8
:103C70000008C4F88880C4F880201834FDF762FE7C
:103C8000814654F8100CA687E687183CB0F5805F93
:103C900003D004E00120BDE8F883206920B12E465E
:103CA000002584F87C8010E00026FAE78021204679
:103CB00001F034FCB8B9C6B116F8010B216888626E
:103CC000B4F85600401EA4F85600B4F856004B460F
:103CD0004FF0000200970028E8D14FF04001204645
:103CE00001F01CFC38B10320D5E735F8020B216840
:103CF000C0F30800E3E72020C4F880000020CAE7F2
:103D00000220C8E7FEE70000094808B5016841F055
:103D10000101016000680022114600F001000090DE
:103D20000B20FDF787FEBDE808400B20FDF774BEB1
:103D3000D8440258194808B5016841F004010160EF
:103D4000016801F004010091016841F08001016007
:103D5000016801F080010091016841F001010160FA
:103D6000016801F001010091016841F00201016068
:103D7000016801F002010091016841F01001016049
:103D8000016801F010010091016841F00801016033
:103D9000006800F00800009008BD0000E0440258F0
:103DA00030B58BB0002468461C2107940894099410
:103DB0000A94FCF758FB1F4840F2E73241F2BF2358
:103DC0001B4D8021C0E9024204618161C0E90053BA
:103DD000FFF784F908B1FCF7DCFD4FF48050079041
:103DE000144807A9FFF70EFA08B1FCF7D2FD1148F5
:103DF000FFF705FD08B1FCF7CCFD60206946CDE971
:103E000000040C48002202940494FFF769FC08B1F6
:103E1000FCF7BFFD074804226946FFF761FC08B1C3
:103E2000FCF7B7FD0348FFF7B5FB0BB030BD000052
:103E300000180040A402002430B595B000241C21D5
:103E40000BA8129413941494FCF70DFB2C216846D4
:103E5000FCF709FB254841F2BF222349802540F2A7
:103E6000E73380E81600C0E90334C0E90545FFF7F1
:103E7000C6FC08B1FCF78DFD1C4812A912941494DD
:103E8000FFF7E0F808B1FCF784FD6020CDE90B04F2
:103E9000164800220BA90D940E940F9410941194BF
:103EA000FFF71EFC08B1FCF774FD104804220BA9B3
:103EB000FFF716FC08B1FCF76CFD4FF400500094BE
:103EC000019469460294CDE904400848039406949D
:103ED0000A94FFF767F808B1FCF75BFD0348FFF7AA
:103EE00059FB15B030BD000000400140F002002435
:103EF00030B593B01C210BA8FCF7B5FA2C2168460D
:103F0000FCF7B1FA204800241E4941F2BF22802567
:103F100040F2E73380E81600C0E90334C0E9054504
:103F2000FFF7DCF808B1FCF734FD1748FFF767FC32
:103F300008B1FCF72EFD6020CDE90B0412480022E9
:103F40000BA90D940E940F9410941194FFF7C8FBD5
:103F500008B1FCF71EFD4FF400500094019469462F
:103F60000294CDE904400848039406940A94FFF7AC
:103F700019F808B1FCF70DFD0348FFF70BFB13B070
:103F800030BD0000004401403C03002430B593B034
:103F90001C210BA8FCF767FA2C216846FCF763FA92
:103FA000204800241E4941F2BF22802540F2E73319
:103FB00080E81600C0E90334C0E90545FFF78EF834
:103FC00008B1FCF7E6FC1748FFF719FC08B1FCF74D
:103FD000E0FC6020CDE90B04124800220BA90D94EF
:103FE0000E940F9410941194FFF77AFB08B1FCF72C
:103FF000D0FC4FF400500094019469460294CDE93E
:1040000004400848039406940A94FEF7CBFF08B1D5
:10401000FCF7BFFC0348FFF7BDFA13B030BD00004A
:10402000004801408803002410B58CB02421684664
:10403000FCF719FA164800244FF6FF72134B099447
:1040400001210A940B94C0E90034C0E902420461E2
:1040500044618461CDE90014CDE902140494CDE9F2
:104060000541694607940894FFF748F908B1FCF741
:1040700090FC074809A909940A940B94FEF7E2FF03
:10408000002801D0FCF785FC0CB010BD00000140F9
:10409000DC00002410B58CB024216846FCF7E3F95D
:1040A00014480024012109948A1E0A948B070B945A
:1040B000C0E90034C0E9024204618461CDE9001422
:1040C000CDE902140494CDE90541694607940894AA
:1040D000FFF714F908B1FCF75CFC064809A909943C
:1040E0000B94FEF7AFFF002801D0FCF752FC0CB098
:1040F00010BD00002801002430B58FB000241C2121
:10410000009407A8019402940394049405940694DF
:10411000FCF7A9F92B4840F2E73241F2BF23284DC2
:104120008021C0E9024204618161C0E90053FEF7C9
:10413000D5FF08B1FCF72DFC4FF4805000902148CA
:104140006946FFF75FF808B1FCF723FC1D48FFF74D
:1041500056FB08B1FCF71DFC1A4804A90494069408
:10416000FEF770FF08B1FCF714FC6020CDE90704EE
:104170001448002207A909940B94FFF7B1FA08B17B
:10418000FCF707FC0F48042207A9FFF7A9FA08B1BA
:10419000FCF7FFFB0B48082207A9FFF7A1FA08B1BB
:1041A000FCF7F7FB07480C2207A9FFF799FA08B1BB
:1041B000FCF7EFFB0348FFF7EDF90FB030BD00004F
:1041C000000400407401002410B58CB0242168461E
:1041D000FCF749F9154800244FF6FF72124B099479
:1041E00001210A940B94C0E90034C0E90242046141
:1041F0008461CDE90014CDE902140494CDE90541B0
:10420000694607940894FFF779F808B1FCF7C1FBF9
:10421000064809A909940B94FEF714FF002801D061
:10422000FCF7B7FB0CB010BD00080040C001002433
:1042300010B58CB024216846FCF715F91548002408
:104240000121134B8A1E09940A940B94C0E900348F
:10425000C0E9024204618461CDE90014CDE9021491
:104260000494CDE90541694607940894FFF746F8A0
:1042700008B1FCF78EFB074809A909940B94FEF7D7
:10428000E1FE002801D0FCF784FB0CB010BD00005B
:10429000000C00400C02002430B599B000241C2111
:1042A000009412A801940294039404940594069433
:1042B000FCF7D9F82C2107A8FCF7D5F82F4841F2D4
:1042C000BF222D49802540F2E73380E81600C0E97F
:1042D0000334C0E90545FEF701FF08B1FCF759FBBF
:1042E0004FF48050009025486946FEF78BFF08B1D7
:1042F000FCF74FFB2148FFF782FA08B1FCF749FBB6
:104300001E4804A9049405940694FEF79BFE08B188
:10431000FCF73FFB60201494CDE9120417480822F3
:1043200012A91594169417941894FFF7D9F908B1A7
:10433000FCF72FFB11480C2212A9FFF7D1F908B1A5
:10434000FCF727FB4FF400500794089409940103ED
:104350000A94CDE90B40CDE90E41084807A90D9418
:1043600010941194FEF71EFE08B1FCF712FB0348EF
:10437000FFF710F919B030BD0004014058020024C5
:104380001848002110B5164C0C224FF41653046047
:10439000C0E90131C160C0E904128161C1610162FB
:1043A00041628162FFF749FB08B1FCF7F2FA0D4860
:1043B0000021FFF71BFB08B1FCF7EBFA09480021CD
:1043C000FFF7EEFA08B1FCF7E4FA0648FFF7C8FA7F
:1043D000002803D0BDE81040FCF7DBBA10BD000098
:1043E000004C0040D40300241848002110B5164C9E
:1043F0000C224FF4E1330460C0E90131C160C0E92F
:1044000004128161C161016241628162FFF715FBA3
:1044100008B1FCF7BEFA0D480021FFF7E7FA08B132
:10442000FCF7B7FA09480021FFF7BAFA08B1FCF720
:10443000B0FA0648FFF794FA002803D0BDE8104010
:10444000FCF7A7BA10BD0000001001406004002472
:10445000884201DD0846704749428842FBDA08B2CB
:104460007047FEE77047000090B1017800F1180234
:1044700090ED072AD0ED061AC0ED040A80ED050A7A
:1044800030EEC01A82EC031A29B1012932D067E05C
:104490009FED350A704790ED0A0AD0ED023AD0ED53
:1044A000012A31EE613A03EE810A90ED032AD0ED44
:1044B0000D0A62EE811A23EE021AB4EEE00AC0ED94
:1044C000091AF1EE10FA80ED0B1A80ED0A0A06DCEB
:1044D000F1EE600AB4EEE00AF1EE10FA01D2C0ED9E
:1044E0000A0A90ED0A0AD0ED0E0A31EE800A30EE8B
:1044F000010A25E0B0EE005AB0EE410A71EE614AC1
:1045000001EEC50A90ED014A90ED023AD0ED033A72
:10451000D0ED0C2A23EE011A70EE021A24EE840A62
:10452000D0ED0E0A61EEA31A30EE012A80ED090AE1
:1045300080ED0A1AC0ED0B1A32EE210A30EE220A83
:1045400080ED0C0AB4EEE00AF1EE10FA06DCF1EEB2
:10455000600AB4EEE00AF1EE10FA01D2C0ED0C0AE6
:1045600090ED0C0A704700000000000000280FD0FA
:104570000170DFED082AC0ED0D0A80ED0E0AC0EDD6
:10458000082AC0ED072AC0ED062A001D80EC031A98
:104590007047000000000000704700002DE9F04760
:1045A000454D044689464FF0000A2868C0438007FD
:1045B0000AD0414E283E306820F080603060FDF720
:1045C000C1F90746B04608E00120BDE8F08700BF0A
:1045D000FDF7B8F9C01B022867D8D8F80000000121
:1045E000F6D4206829684FF4FE0721F47C313E029E
:1045F00041EA00302860207AA389B4F804C0400260
:104600002D4D2D495B1E227CACF1010C1035091D8E
:10461000A0F5007080B2521ECCF3080C07EA0343E9
:1046200040EA0C00184306EA02621043286008685A
:10463000626920F0C000104308600A68A06922F097
:10464000200202430A60281D0A6822F010020A6054
:1046500002684FF6F873E4699A4342EAC4020260C2
:104660000868B9F1000F40F010020A6011D0086824
:10467000B9F1010F11D040F400100860D8F8000023
:10468000444640F08060C8F80000FDF75BF905463D
:104690000DE0086840F40020EFE740F48010ECE7FC
:1046A000FDF750F9401B022801D903208DE720684F
:1046B0000001F5D5504688E7284402582DE9F04717
:1046C000454D044689464FF0000A2868C0438007DC
:1046D0000AD0414E283E306820F080503060FDF70F
:1046E00031F90746B04608E00120BDE8F08700BF79
:1046F000FDF728F9C01B022867D8D8F80000800011
:10470000F6D4208829684FF4FE0721F07C713E0220
:1047100041EA00502860207AA389B4F804C040021E
:104720002D4D2D495B1E227CACF1010C1835091D65
:10473000A0F5007080B2521ECCF3080C07EA0343C8
:1047400040EA0C00184306EA026210432860086839
:10475000626920F44060104308600A68A06922F48E
:10476000007202430A60281D0A6822F480720A60FF
:1047700002684FF6F873E4699A4342EAC4020260A1
:104780000868B9F1000F40F480720A6011D008681F
:10479000B9F1010F11D040F080700860D8F8000026
:1047A000444640F08050C8F80000FDF7CBF80546BD
:1047B0000DE0086840F48000EFE740F40000ECE70B
:1047C000FDF7C0F8401B022801D903208DE72068BF
:1047D0008000F5D5504688E728440258704700000D
:1047E000F0B5214C00284FF00005DDE90676DDF834
:1047F00020E0DDF814C002DDC4E9010501E0C4E9F0
:104800000150002902DDC4E9051501E0C4E90551A4
:10481000002A02DDC4E9072501E0C4E90752002BA4
:1048200002DDC4E9033501E0C4E903530E490F4832
:104830004C31A1F110021FB101F110031B6805E01A
:10484000BCF1000F01D00B6800E0136803600EB1EB
:104850008B6800E09368BEF1000F836001D0C968E7
:1048600000E0D168C160F0BD00000024AC0000246D
:10487000234810B5FEF7ACFC21480C21FFF704F8E3
:104880001F480421FFF700F81E48FEF7A1FC1E4850
:10489000FEF79EFC1B480421FEF7F6FF1A480C2188
:1048A000FEF7F2FF1948FEF793FC18480021FEF7C7
:1048B000EBFF16480421FEF7E7FF1248FEF788FCDD
:1048C0001348FEF785FC0F480021FEF7DDFF104876
:1048D0000021FEF7D9FF0F48FEF77AFC08480821AF
:1048E000FEF7D2FF08480821FEF7CEFF044800215A
:1048F000FEF7CAFFBDE8104006480021FEF7C4BF1E
:1049000074010024F002002458020024A4020024B0
:10491000880300243C030024FDF71AB870B5CCB01E
:104920004C212FA8FBF79FFD202142A8FBF79BFD00
:10493000BC216846FBF797FD0220FDF7ADF8204843
:1049400000242049026842F44042026002680A687A
:1049500042F001020A60096801F001014A91016810
:104960008904FCD50DF1E40C0521C0220220389009
:104970008CE807003C9008253D90C3033E9001263B
:10498000CDE93F5441942FA8CDE92F63FEF772F88B
:104990004020449403260201CDE945503F21CDE952
:1049A0004702CDE942160421499042A8FDF752FE84
:1049B000009668461D941E94FDF7EEF94CB070BD4C
:1049C000184802582C0400582E48F0B52E4A0168A9
:1049D00041F470010160106800F00F00072804D254
:1049E000106820F00F00C01D106028490020274CDF
:1049F00010340B68264D43F001030B6020600B68F8
:104A00002B400B60136803F00F03072B04D91368C6
:104A100023F00F03DB1D13601C4C1E4A18341E4B81
:104A2000261D371D2060194C1C4D28343060261D72
:104A30003860371D23603B1D35601C1D3A60251D05
:104A40002E1D1860331D22602860326018600A68CD
:104A50000E4B134C22F4802260330A6018602068E9
:104A60006FF30F00B0F1005F03D20E490120C1F8CF
:104A7000080143F2D2000C49024B4A03803B086014
:104A80001A60F0BD88ED00E000200052004402589A
:104A90007FEDF6EA80020101000202020000FF0140
:104AA0000010005C00800051004000522DE9F047EA
:104AB000274B4FF0804A274D02689842264E274FD9
:104AC000274C09D0504507D0A84205D0B04203D0AA
:104AD000B84201D0A04205D1D1F804C022F0700242
:104AE0004CEA0202DFF87CC0DFF87C809842DFF8F5
:104AF0007C900FD050450DD0A8420BD0B04209D0C9
:104B0000B84207D0A04205D0604503D0404501D04F
:104B1000484503D1CD6822F440722A434D6922F002
:104B200080022A43026098428A68C2620A688262EE
:104B300007D0A04205D0604503D0404501D048458C
:104B400001D10969016301214161BDE8F0870000DD
:104B5000000001400004004000080040000C00403C
:104B60000004014000400140004401400048014071
:104B700010B5046A012301F01F018B409C430462BD
:104B80008A40016A1143016210BD42EA0322836830
:104B90000A4323F47F410A4382607047034B8268D3
:104BA0001A400A4342F00701816070478FFFCFFF30
:104BB0002DE9F04F026ADFF88880DFF8889022F054
:104BC0000102DFF884A0DFF884B0214F0262DFF831
:104BD00084C0066A4268836926F002060D68B842FE
:104BE0008C6803EA0C0323F0030344EA060445EA55
:104BF000030507D0404505D0484503D0504501D0B6
:104C0000584505D1CB6824F00804234323F004045D
:104C1000B84207D0404505D0484503D0504501D0A3
:104C2000584505D122F44076D1E9053233431A4381
:104C300042608561496841630462BDE8F08F00000D
:104C40000004014000400140004401400048014090
:104C5000000001408FFFFEFFF0B5026A1E4E1F4CA0
:104C600022F01002DFF878E00262056A4368826988
:104C700025F02005D1F808C0A0420F6802EA06021C
:104C800022F4407245EA0C1542EA072201D0704531
:104C900006D1CE6825F0800545EA061525F04005C9
:104CA000A0420AD0704508D00E4CA04205D00E4C50
:104CB000A04202D00D4CA04207D1D1E9054623F411
:104CC000406343EA840343EA8603436082614968A0
:104CD00081630562F0BD0000FF8FFFFE0000014010
:104CE00000040140004001400044014000480140F0
:104CF000F0B5026A1C4D1D4E22F48072A842026279
:104D0000026A4368C76922F40072D1F808C00C68CF
:104D100027F0730742EA0C2244EA070401D0B042AC
:104D200006D1CF6822F4006242EA072222F48062B0
:104D3000A8420AD0B04208D00D4DA84205D00D4D72
:104D4000A84202D00C4DA84207D1D1E9055623F460
:104D5000405343EA051343EA06134360C4614968BC
:104D6000C1630262F0BD0000000001400004014088
:104D700000400140004401400048014070B5026A13
:104D8000144B22F4805202629842036A4268C4695A
:104D900023F400538E680D6824F4E64443EA063396
:104DA00044EA05240BD00C4DA84208D00B4DA84274
:104DB00005D00B4DA84202D00A4DA84204D14D693E
:104DC00022F4804242EA85124260C461496801646B
:104DD000036270BD0000014000040140004001403A
:104DE0000044014000480140F0B5026A22F48032DC
:104DF0000262134F056A4268446D25F400350E893E
:104E0000B8420B6824F0700445EA064543EA0403FF
:104E10000BD00C4CA04208D00B4CA04205D00B4C40
:104E2000A04202D00A4CA04204D14C6922F4803244
:104E300042EA042242604365496881650562F0BD2B
:104E400000000140000401400040014000440140D6
:104E500000480140F0B5026A22F480120262134F4A
:104E6000046A4268436D24F400140E89B8420D6848
:104E700023F4E04344EA065443EA05230BD00C4DE7
:104E8000A84208D00B4DA84205D00B4DA84202D035
:104E90000A4DA84204D14D6922F4003242EA85222B
:104EA000426043654968C1650462F0BD000001408D
:104EB000000401400040014000440140004801401E
:104EC00010B5036A046A23F00A0324F001040462A3
:104ED00084690B4324F0F00141EA0211816103620D
:104EE00010BD10B5036A23F0100303628369046ADE
:104EF00023F4704324F0A00443EA0232826144EABE
:104F00000111016210BD00003FB514A1D1E90023D9
:104F100014A1CDE90023D1E90021CDE90221416EA0
:104F2000B9B1016802AC8A688968C2F34262490F6C
:104F30001DF80150615C2D01B5FBF1F1A0F86A107C
:104F40001DF80210A25C0901B1FBF2F1A0F8681093
:104F50003FBD0121A0F86A10F8E70000010101033C
:104F600007010000080402040801010190F828105C
:104F7000C90706D00168C36A4A6822F400321A439E
:104F80004A6090F82810890706D50168036B4A68C3
:104F900022F480321A434A6090F82810490706D557
:104FA0000168436B4A6822F480221A434A6090F8F1
:104FB0002810090706D50168836B4A6822F400426D
:104FC0001A434A6090F82810C90606D50168C36BD9
:104FD0008A6822F480521A438A6090F82810890661
:104FE00006D50168036C8A6822F400521A438A606D
:104FF00090F82810490611D50168436C4A6822F4DC
:1050000080121A434A60416CB1F5801F06D10168D5
:10501000836C4A6822F4C0021A434A6090F8281050
:10502000090606D50168C26C486820F400201043C8
:1050300048607047F8B500260446C0F88860FCF761
:1050400081FC054620686FF07E470068000708D5A0
:1050500000222B464FF400112046009700F05EFA24
:1050600060B92068006840070AD500222B464FF43B
:1050700080012046009700F051FA08B10320F8BDE6
:105080002020C4F8800084F87C60C4F884000020EC
:10509000F8BD70B5846B00252168D4F88000D4F881
:1050A00084608968090606D5212804D1A4F85650E1
:1050B000204600F04DF820688068400606D5222E74
:1050C00004D1A4F85E50204600F02EF8D4F88800F1
:1050D00040F01000C4F888002046FEF7ADFC70BD1B
:1050E00010B5C169806BB1F5807F14D00021A0F8A4
:1050F0005E10202201680B6823F480730B60016846
:105100008B6823F001038B6001688B6823F04003F8
:105110008B60C0F88420FEF789FD10BD10B5806B50
:10512000FEF790FD10BD000030B501682023074D4B
:1051300000240A6822F490720A6001688A682A4092
:105140008A60C0F88430C46630BD0000FEFFFFEF07
:10515000016820220B6823F0C0030B6001688B6894
:1051600023F400038B60C0F8802070472DE9F043E2
:1051700004468068D94F87B02268D4E90465E369A2
:10518000616E304316681D432843D54B002501430B
:105190003E400E4316602068E268416821F44051A9
:1051A000114341602268A1699A4201D0206A0143FB
:1051B0009668DFF830C3CC4FCC4806EA0C060E43A5
:1051C00096602168666ACA6A22F00F023243CA6298
:1051D0002268BA420ED1006800F03800182873D057
:1051E00047DCB8B3082879D010286FD178E0282898
:1051F0007ED17BE0BE498A4209D1006800F00700F9
:10520000062875D2DFE800F0546A6C6E7072B949F6
:105210008A4209D1006800F00700062868D2DFE85A
:1052200000F0475D5F616365B3498A4209D1006858
:1052300000F0070006285BD2DFE800F03A50525435
:105240005658AE498A420BD1006800F00700062884
:105250004ED200E010E0DFE800F02B414345474923
:10526000A7498A420AD1006800F03800182839D0CE
:10527000B7DD2028BBD13CE001203AE0A1498A42B9
:1052800009D1006800F00700062831D2DFE800F0FD
:105290001026282A2C2E9C498A420BD1006800F047
:1052A0000700062824D2DFE800F003191B1D1F2188
:1052B00000201EE09A421BD18C48001D006800F0BF
:1052C0000700062814D202E00CE007E010E0DFE857
:1052D00000F0030507090B0D02200AE0042008E096
:1052E000082006E0102004E0202002E0402000E03A
:1052F00080208649DFF818829A42864A4FF400439C
:105300004FEA21174FF000064ED110281AD006DCC4
:10531000022809D004280BD008287DD10DE02028D0
:105320003ED0402878D13DE0FCF7E0FB014610E09C
:105330006846FCF7EDFB01990BE003A8FCF78AFC3B
:10534000049906E01068800604D51068C0F3C10017
:10535000C140C1B3606A676838F8102007EB4703A3
:10536000B1FBF2F0834257D8B0EB073F54D800238B
:1053700008461946FBF700F80902020241EA1061EB
:1053800070084FEA370010183A4671410023FAF7C7
:10539000F3FF614AA0F5407191423DD821684CE08D
:1053A0003946D7E71946D5E7D4F81CC04FF6EF7950
:1053B0009C4552D108281AD006DC60B101280DD0D6
:1053C000042829D10EE039E0102815D0202840D03B
:1053D00040287CD13FE0FDF78DFA01E0FDF79CFA13
:1053E000014610E06846FCF793FB01990BE003A827
:1053F000FCF730FC049906E01068800604D51068BC
:10540000C0F3C100C140C9B1636A606838F81330A5
:10541000B1FBF3F1490000E059E001EB5001B1FBB1
:10542000F0F080B2A0F11001494550D84FF6F0736A
:105430002168C0F3420218401043C8600120A4F85C
:105440006A00A4F868002846E666266707B0BDE84B
:10545000F0833946D8E71946D6E7082819D005DC85
:1054600058B101280CD0042831D10DE0102815D0F6
:1054700020282ED040282AD12DE0FDF73BFA01E06C
:10548000FDF74AFA014610E06846FCF741FB019936
:105490000BE003A8FCF7DEFB049906E01068800629
:1054A00005D51068C0F3C100C1400029C6D0636AA9
:1054B000606838F81330B1FBF3F101EB5001B1FB38
:1054C000F0F080B2A0F1100149457FF667AF0125E9
:1054D000B4E73946EBE71946E9E70000F369FFCF87
:1054E000000C0058FFF4FF11001001405444025812
:1054F0000044004000480040004C00400050004084
:105500000014014000780040007C00400090D0036F
:105510009A61000800440258FFFC0F002DE9F04793
:105520009A4617460E460446089D4FF000094FF074
:10553000200839E0681C37D0FCF704FAA0EB0A0019
:10554000A84222D80DB32068016849072CD5C0694C
:10555000C043000528D423684FF400611962216814
:105560000B6823F4D0730B6021688B6823F0010370
:105570008B60C4F88080C4F88480C4F8888000BF41
:10558000032084F87C90BDE8F08721680B6823F441
:10559000D0730B6021688B6823F001038B60C4F823
:1055A0008080C4F88480EBE72068C06936EA000098
:1055B00004D00020B842BDD00020E4E70120F9E784
:1055C000FEE703B401984100009850EAC12018BFDB
:1055D00004204A0D18BF40F0010040F2FF72B2EB08
:1055E000515F08BF40F00200012808BF052002B04B
:1055F0007047090700284FEA116104DB00F1E02041
:1056000080F80014704700F00F0000F1E02080F8EF
:10561000141D70470000000010B529499FED261B9E
:105620002DED020B84B0059820F000408842D8BFD1
:105630009DED040B2DDD2349884209D1049840B922
:105640004FF00100FAF73EFF00F01AFB06B010BD64
:1056500005DB9DED040B30EE000B06B010BD684677
:105660009DED040B00F088F810F0030004BF9DEDE1
:10567000021B9DED000B0CD001280ED09DED021BEE
:105680009DED000B022810D0012000F0A5FA06B015
:1056900010BD00F0F9F906B010BD9DED021B9DEDA7
:1056A000000B012000F098FA01E000F0EDF906B0DF
:1056B000B1EE400B10BD0000000000000000000033
:1056C000FB21E93F0000F07F10B529499FED261B23
:1056D0002DED020B84B0059820F000408842DCBF1D
:1056E00000209DED040B2EDD2249884209D104984B
:1056F00040B94FF00100FAF7E5FE00F0C1FA06B03C
:1057000010BD05DB9DED040B30EE000B06B010BDA7
:1057100068469DED040B00F02FF810F003000DD04B
:10572000012814D09DED021B9DED000B022816D020
:1057300000F0AAF906B0B1EE400B10BD9DED021BC2
:105740009DED000B012000F047FA06B010BD9DED65
:10575000021B9DED000B00F097F906B010BD012073
:1057600000F03AFAE6E70000000000000000000048
:10577000FB21E93F0000F07F2DE9F14F04462DEDBC
:10578000020B2DED048B94B09FED9D0B80ED020B71
:10579000199E9D4826F0004585420ADC9DED180BB8
:1057A000002084ED000B14B0BDEC048B03B0BDE809
:1057B000F08F96489FED969B9FED978BA84225DD35
:1057C00097489FED991B9FED9A2B9DED180B002E8E
:1057D0000DDD30EE490B854212BF30EE480B30EE46
:1057E000410B30EE420B84ED000B0120DBE730EE85
:1057F000090B854212BF30EE080B30EE010B30EE84
:10580000020B84ED000B4FF0FF30CCE78A48A84232
:1058100053DB9DED180B51EC100B00F05BFA41ECE3
:10582000100BB0EE401B9FED862B9FED870B290DD3
:10583000DFF81CC201EE020B0120FDEEC00B10EEE2
:10584000903A00EE903AB8EEE02BB0EE410B02EE4B
:10585000490B22EE081BFC44032830EE411B84ED6B
:10586000001B1DD011EE902A00EB4015113DC2F334
:105870000A528A1A954213DA0CEB0012B0EE403B42
:1058800092ED000B401C20EE021B33EE410B33EE79
:10589000403B33EE411B92ED023B12EE031BDBE774
:1058A000002EA8BF1846BFF67EAF94ED000B5842FD
:1058B000B1EE400B84ED000B75E7C6F3130040F426
:1058C000801EC6F30A50A0F2F530471100F01F0504
:1058D000C5F12000DDF860B0139000200890099019
:1058E00005200DF1080C5B49002D07EB00027944FF
:1058F00008BF51F8221009D051F8223001EB820183
:10590000AB404A68139922FA01F11943A1FB0E2614
:10591000A1FB0B131A449A4234BF0123002303EB6B
:1059200006080CEB8003D3E901A60E448E4234BF77
:105930000121002192448A4411B1924502D903E029
:10594000924501D2012100E00021C3E901A64144B2
:105950004CF82010011EA0F10100C4DC04989DED5C
:10596000050A00F10050810F04989FED3B4B800029
:1059700001EE100ADDED060A9DED072AB8EEC13BE7
:10598000B8EE401BB8EE600BB8EE422B002021EEC3
:10599000041B9FED334B20EE040B9FED334B22EEA7
:1059A000042B30EE024B34EE014B34EE034B8DED05
:1059B000004B00909DED004B199834EE433B10F0E6
:1059C000004F33EE411B31EE400B32EE401B9DED9C
:1059D000000B9FED272B20EE020B9FED272B01EEF6
:1059E000020B9DED001B9FED262B01EE020B1CBF51
:1059F0004942B1EE400B84ED000B0846D3E60000AF
:105A00000000000000000000FB21E93F7CD90240BB
:105A100000004054FB21F93F3163621A61B4D03D6C
:105A2000FB21F93F000000000000601A61B4D03D86
:105A30007370032E8A19A33BFB213941000000003B
:105A400083C8C96D305FE43F000000000000E03F04
:105A50009E09000036090000000000000000103E12
:105A6000000000000000103C000000000000103AA0
:105A70003326A611460B113C182D4454FB21F93D49
:105A800000000054FB21F93D10B52DED040B2DED68
:105A9000068B82B0B0EE41AB09989FED299B20F0B8
:105AA0000044B4F1795F0FDA9DED080BBDEEC00B39
:105AB00010EE100A002801BFB0EE490B02B0BDEC99
:105AC000068B04B008BF10BD9DED080B1E480621D3
:105AD00020EE008BB0EE480B784400F045F820EE45
